:020000040000FA
:100000000C94D7000C94FF000C94FF000C94FF009C
:100010000C94FF000C94FF000C94FF000C94FF0064
:100020000C94FF000C94FF000C94FF000C94FF0054
:100030000C94FF000C94FF000C94FF000C94FF0044
:100040000C943F080C94FF000C940D080C94E707E7
:100050000C94FF000C94FF000C94FF000C94FF0024
:100060000C94FF000C94FF006382536300010800AE
:100070000604000100000000240027002A00000000
:100080000000250028002B004500008200004000F1
:1000900020485454502F312E3020353033204D79A4
:1000A0002053657276696365200D0A436F6E74652F
:1000B0006E742D547970653A20746578742F687465
:1000C0006D6C0D0A52657472792D41667465723AD1
:1000D000203630300D0A0D0A3C68746D6C3E3C6869
:1000E0006561643E3C7469746C653E53656E736F04
:1000F0007220506972204465746563746F723C2F7E
:100100007469746C653E3C2F686561643E3C626F47
:1001100064793E3C68313E53656E736F722050695E
:1001200072206465746563746F723C2F68313E3C65
:1001300068333E5354415455533C2F68333E3C7012
:100140003E3C656D3E3C6272202F3E3C2F656D3E0D
:100150003C2F703E3C2F626F64793E3C2F68746D7B
:100160006C3E000000000023002600290004040467
:100170000404040404020202020202030303030350
:10018000030102040810204080010204081020012D
:10019000020408102000000008000201000003040F
:1001A000070000000000000000008908D20E1124A2
:1001B0001FBECFEFD8E0DEBFCDBF24E0A0ECB1E0A2
:1001C00001C01D92AF3BB207E1F711E0A0E0B1E042
:1001D000E2EDF2E202C005900D92A03CB107D9F722
:1001E00010E0C6EDD0E004C02197FE010E94570F39
:1001F000C53DD107C9F70E94C3080C945C110C944B
:100200000000CF93DF93209114042223C1F0FC015E
:1002100020812223A1F0C4E1D4E0A0E1B4E09C015C
:100220002C5F3F4F899141919D918427892339F417
:10023000E217F307B9F781E0DF91CF91089580E0ED
:10024000FBCFAF92BF92CF92DF92EF92FF920F93CC
:100250001F93CF93DF936C017B018B01040F151F5C
:10026000EB015E01AE18BF08C017D10759F06991C4
:10027000D601ED91FC910190F081E02DC601099528
:10028000892B79F7C501DF91CF911F910F91FF90D5
:10029000EF90DF90CF90BF90AF900895FC01538D09
:1002A000448D252F30E0842F90E0821B930B541750
:1002B00010F0CF96089501970895FC01918D828DDD
:1002C000981761F0A28DAE0FBF2FB11D5D968C9176
:1002D000928D9F5F9F73928F90E008958FEF9FEFB5
:1002E0000895FC01918D828D981731F0828DE80F71
:1002F000F11D858D90E008958FEF9FEF0895FC012B
:10030000918D228D892F90E0805C9F4F821B9109F7
:100310008F739927089588E194E00E947F0121E07E
:10032000892B09F420E0822F089580E090E0892B4A
:1003300029F00E948B0181110C9400000895FC01AA
:10034000A48DA80FB92FB11DA35ABF4F2C91848D36
:1003500090E001968F739927848FA689B7892C9393
:10036000A089B1898C91837080648C93938D848DE6
:10037000981306C00288F389E02D80818F7D8083E9
:100380000895EF92FF920F931F93CF93DF93EC01A9
:1003900081E0888F9B8D8C8D98131AC0E889F9892C
:1003A000808185FF15C09FB7F894EE89FF8960832F
:1003B000E889F98980818370806480839FBF81E0B0
:1003C00090E0DF91CF911F910F91FF90EF900895F2
:1003D000F62E0B8D10E00F5F1F4F0F731127E02ECD
:1003E0008C8D8E110CC00FB607FCFACFE889F98905
:1003F000808185FFF5CFCE010E949F01F1CFEB8D6B
:10040000EC0FFD2FF11DE35AFF4FF0829FB7F894D8
:100410000B8FEA89FB8980818062CFCFCF93DF93F6
:10042000EC01888D8823B9F0AA89BB89E889F9890C
:100430008C9185FD03C0808186FD0DC00FB607FC41
:10044000F7CF8C9185FFF2CF808185FFEDCFCE0174
:100450000E949F01E9CFDF91CF910895833081F011
:1004600028F4813099F08230A9F008958730A9F0FE
:100470008830C9F08430B1F4809180008F7D03C052
:10048000809180008F7780938000089584B58F7766
:1004900084BD089584B58F7DFBCF8091B0008F77A8
:1004A0008093B00008958091B0008F7DF9CFCF93F5
:1004B000DF93E8E9F1E08491E4E8F1E0D491E0E74A
:1004C000F1E0C491CC23A1F081110E942E02EC2F07
:1004D000F0E0EE0FFF1FED59FE4FA591B491EC91A6
:1004E000ED2381E090E009F480E0DF91CF91089561
:1004F00080E090E0FACF1F93CF93DF93282F30E076
:10050000F901EB56FE4F8491F901EF57FE4FD4915C
:10051000F901E359FE4FC491CC23A9F0162F8111A4
:100520000E942E02EC2FF0E0EE0FFF1FE258FF4F6B
:10053000A591B4918FB7F894EC91111108C0D095A2
:10054000DE23DC938FBFDF91CF911F910895DE2BC7
:10055000F8CFCF93DF9390E0FC01EF57FE4F24914B
:1005600083599E4FFC0184918823D1F090E0880F3D
:10057000991FFC01EC58FF4FA591B491FC01E25882
:10058000FF4FC591D49161110EC09FB7F8948C9123
:10059000E22FE0958E238C932881E223E8839FBF8E
:1005A000DF91CF9108958FB7F894EC91E22BEC9303
:1005B0008FBFF6CF3FB7F8948091C8019091C901E1
:1005C000A091CA01B091CB0126B5A89B05C02F3FD1
:1005D00019F00196A11DB11D3FBFBA2FA92F982F69
:1005E0008827BC01CD01620F711D811D911D42E064
:1005F000660F771F881F991F4A95D1F708952FB767
:10060000F8946091C4017091C5018091C6019091E8
:10061000C7012FBF089580912C0290912D02982739
:1006200089279827449720914A0230E044E0359585
:1006300027954A95E1F7220F331F220F331F821BA4
:10064000930B97FF02C090E080E008952091400254
:1006500030913E023093400220933E0220914102AD
:1006600030913F023093410220933F02ECE1F2E0EF
:1006700021A5820F911D25A585A7662381F021A7BD
:10068000892F9927319722E0E831F20789F71092F4
:100690004E0210924F0280E580934A02089511A6FF
:1006A000EFCF0F931F93CF93DF9370E0645E7D4F86
:1006B0008A01075F1F4F213029F0223031F48A016F
:1006C0000250110930E020E003C000E010E0980182
:1006D000EB01FA01E230F10558F0A991B991BA277E
:1006E000AB27BA270A0F1B1F211D311D3297F2CFEE
:1006F000FA01EE7F6E0F7F1F4E175F0769F0FB0157
:10070000408150E070E060E0762F652F542F442741
:10071000040F151F261F371FA901662777274115CC
:1007200051056105710519F022273327F1CF009596
:100730001095E82FF0E0E45EFD4F10830183DF9118
:10074000CF911F910F910895ECE1F2E0108E118E80
:1007500080E4848B158A868B20E044E150E06EE0D3
:1007600088E10C9451038EBD0DB407FEFDCF0895B2
:1007700061E08091CC010E947B0278940895F89406
:1007800060E08091CC010C947B020F931F93CF9378
:10079000DF93EC018B010E94BF032097B9F08AE33D
:1007A0000E94B3031EBCF801CE01019739F00DB4CD
:1007B00007FEFDCF2EB51EBC2193F7CF2197C00FAA
:1007C000D11F0DB407FEFDCF8EB58883DF91CF9189
:1007D0001F910F910C94B8031F93CF93DF93182FA1
:1007E000C62FD42F0E94BF038C2F8F71812B0E94A4
:1007F000B3038D2F0E94B303DF91CF911F910C940F
:10080000B803CF93C82FC0768091C2018C1799F09E
:1008100043E06FE180EA0E94EC03C093C2014C2FD9
:1008200050E085E0559547958A95E1F76FE180E8BE
:10083000CF910C94EC03CF910895CF93DF93C82F01
:10084000D62F0E9401044D2F6C2F80E4DF91CF91B1
:100850000C94EC03CF93DF93C82FD72F0E941D0475
:100860006D2F81E08C0FDF91CF910C941D04CF93FD
:10087000C82F0E9401040E94BF038C2F8F710E9419
:10088000B30380E00E94B303C7FF03C080E00E946F
:10089000B303CEB50E94B8038C2FCF910895CF93A8
:1008A000DF93EC0140E86FE180E80E94EC0340E850
:1008B0006FE180EA0E94EC034AE06CE180EA0E946A
:1008C000EC0360E07CE082E00E942A04BE01745FD9
:1008D00086E00E942A0440E060E08AE70E94EC0380
:1008E0000E94BF032097B1F08AE70E94B303809172
:1008F0001C028EBDEDE1F2E0C45EDD4FEC17FD079A
:1009000031F081910DB407FEFDCF8EBDF7CF0DB450
:1009100007FEFDCF0E94B80348E06FE180E80E9427
:10092000EC03D0E0C0E08CE10E9437048A7029F427
:100930002196C83E83E0D807B1F78CE10E943704C6
:1009400081FD03C0C83ED34039F448E06FE180EA3E
:10095000DF91CF910C94EC03DF91CF9108950F9329
:100960001F93CF93DF938C018896CCE1D2E0988BD4
:10097000898B0E94A4031AAA1BAAA801445E5F4F98
:1009800022E06AE182E30E945103C801C696DF912A
:10099000CF911F910F910C944F04CF93DF93EB01F4
:1009A000682F84ED0E941D04BE0186ED0E942A047A
:1009B0008AEE0E94370480FDFBCFDF91CF9108952E
:1009C000CF92DF92EF92FF920F931F93863491059F
:1009D00068F120913F02233449F5C0904A02D0903B
:1009E0004B02E0904C02F0904D020091DE0110911C
:1009F000DF012091E0013091E101C016D106E2064D
:100A0000F306A1F4E6E3F3E0845E9D4F9F012E5FC1
:100A10003F4F41815081553319F45281651771F070
:100A2000F901E40FF11DE817F90780F380E01F9149
:100A30000F91FF90EF90DF90CF90089581E0F7CF76
:100A4000E091C001F091C1019F012F5F3F4F3093B2
:100A5000C1012093C00180830895FF920F931F93DB
:100A6000CF93DF93162FF42E052F0E942005812FA0
:100A70000E942005CF2DD02F115020F089910E9487
:100A80002005FACFDF91CF911F910F91FF9008952C
:100A9000FC0101900020E9F73197AF01481B590B89
:100AA000BC0188E194E00C942101CF93DF930E9474
:100AB0004805EC018EE491E00E9448058C0F9D1FD3
:100AC000DF91CF9108950F931F93CF93DF938C0104
:100AD000EB018091B5049091B604009739F0209114
:100AE000B7043091B80426173707B8F4BE016F5F1A
:100AF0007F4F0E9482100097E1F09093B60480939C
:100B0000B504D093B804C093B7042091B9043091D0
:100B1000BA04232B11F4FC011082D093BA04C093C1
:100B2000B904B8018091B5049091B6040E945511A2
:100B300014C08091B5049091B604009711F00E9402
:100B4000F90F1092B6041092B5041092BA041092E4
:100B5000B9041092B8041092B70485EB94E0DF91C9
:100B6000CF911F910F9108958F929F92AF92BF9254
:100B7000CF92DF92EF92FF921F93CF93DF93CDB787
:100B8000DEB7A1970FB6F894DEBF0FBECDBFD62E4D
:100B9000172F0E944805ED2CF12E10E08AE0882ED8
:100BA000912CA12CB12CF70121917F0130E050E074
:100BB00040E019A26E01F1E2CF0ED11CCA01B901C9
:100BC000A50194010E94350F605DF60162936F01EB
:100BD000211531054105510589F7309719F0CF01ED
:100BE0000E944805133029F06EE288E194E00E94EB
:100BF000C1011F5F1430B9F68EE491E00E944805F0
:100C0000A1960FB6F894DEBF0FBECDBFDF91CF9196
:100C10001F91FF90EF90DF90CF90BF90AF909F908B
:100C20008F900895DC0196E0FB0101900D929A955A
:100C3000E1F70895CF93DF93EB0144E050E0BC016E
:100C400088E392E00E943F11892B49F462E372E04D
:100C5000CE010E94120681E0DF91CF91089580E0DD
:100C6000FBCFBC018CE192E00E9412066FEE71E0B6
:100C700082E292E00C941206DC0194E0FB01019008
:100C80000D929A95E1F708950F931F93CF938C01DE
:100C900086E391E00E943106ECE1F2E088E084878F
:100CA000C6E0C58748E050E06CE670E08AE292E07A
:100CB0000E94DB0EECE3F2E0DF011D92CA95E9F73A
:100CC0006FEE71E082E392E00E941206B80182E4C6
:100CD00092E00E943C0664E174E088E392E00E94A6
:100CE0003C068AE290E0CF911F910F910C944F0443
:100CF00082E292E00E94310666E372E08AE392E0CB
:100D00000E943C0664E174E086E392E00E943C06A7
:100D10000C94A403262F206120934B02643021F011
:100D2000009711F481E090E061E00E9426031092A8
:100D30002C0288E280932D020E94780684E0809342
:100D40004C0210924D0222E04CE150E06AE182E355
:100D50000E94510386E390E00C944F04CF93DF93FD
:100D6000EB010E943106BE018AE392E00E943C063C
:100D700064E174E086E392E0DF91CF910C943C064D
:100D8000EF92FF920F931F93CF93DF938C01ECE1CF
:100D9000F2E086E191E0DF019C011D92215030409C
:100DA000E1F78091EE01C6E3D1E0833011F4C9EDA3
:100DB000D1E0CE010E940101BE01882309F4ACC03C
:100DC00089EF91E00E94AE068881807F803E91F09D
:100DD00088819981AA81BB818F3F9F4FAF4FBF4FC1
:100DE00049F044E050E0BE0185EF91E00E943F11E0
:100DF000892B31F466E371E08CE192E00E941206E7
:100E000088E0809328021092290249E050E068E8C7
:100E100070E08AE292E00E94DB0E10922C0281E1E7
:100E2000809333021092400283E480934102109237
:100E30003E0284E480933F021092420210924402E8
:100E40001092450266E371E08CE192E00E94120686
:100E500081E0809346028093470286E080934802B7
:100E60008091DE019091DF01A091E001B091E1015C
:100E700080934A0290934B02A0934C02B0934D0290
:100E8000C091EE01C33031F464E174E082E592E098
:100E90000E943C066FEE71E082E692E00E9412062C
:100EA00082E393E09093C1018093C001E8E6F0E013
:100EB00084910E942005E9E6F0E084910E942005DB
:100EC000EAE6F0E084910E942005EBE6F0E08491F0
:100ED0000E94200585E30E94200581E00E942005F4
:100EE00083E0C11101C081E00E9420058DE30E94D2
:100EF000200587E00E94200581E00E9420058FEEFA
:100F0000E82E81E0F82EC7E0C15049F0D7018D915D
:100F10007D010E942005F8CF8FEF91E053CF8091A3
:100F20000001882371F060E071E0FB010190002076
:100F3000E9F7BF016150714040E051E08CE00E9450
:100F40002D050115110559F0A80164E082E30E9406
:100F50002D0549ED51E064E086E30E942D0587E30D
:100F60000E94200583E00E94200581E00E94200568
:100F700083E00E94200586E00E9420058FEF0E94FA
:100F80002005C091C001D091C101C654D240CE010C
:100F90004C9690932C0280932D020E94A403CE01C4
:100FA00008969093420280934302AE01405F5F4FE8
:100FB00021E06AE188E20E945103CE018A96DF9126
:100FC000CF911F910F91FF90EF900C944F041F92BF
:100FD0000F920FB60F9211242F933F934F935F936D
:100FE0006F937F938F939F93AF93BF93EF93FF93F1
:100FF00088E194E00E949F01FF91EF91BF91AF9132
:101000009F918F917F916F915F914F913F912F9120
:101010000F900FBE0F901F9018951F920F920FB652
:101020000F9211242F938F939F93EF93FF93E0914F
:101030002804F09129048081E0912E04F0912F047E
:1010400082FD1BC09081809131048F5F8F7320914E
:101050003204821741F0E0913104F0E0E85EFB4F8A
:10106000958F80933104FF91EF919F918F912F91F4
:101070000F900FBE0F901F9018958081F4CF1F9294
:101080000F920FB60F9211242F933F938F939F933C
:10109000AF93BF938091C4019091C501A091C60107
:1010A000B091C7013091C30123E0230F2D3758F5CC
:1010B0000196A11DB11D2093C3018093C40190939B
:1010C000C501A093C601B093C7018091C80190915A
:1010D000C901A091CA01B091CB010196A11DB11D1A
:1010E0008093C8019093C901A093CA01B093CB012A
:1010F000BF91AF919F918F913F912F910F900FBE14
:101100000F901F90189526E8230F0296A11DB11D80
:10111000D2CFE8E1F4E01382128288EE93E0A0E0FF
:10112000B0E084839583A683B78380E491E09183C4
:10113000808385EC90E09587848784EC90E09787A6
:10114000868780EC90E0918B808B81EC90E0938B94
:10115000828B82EC90E0958B848B86EC90E0978B71
:10116000868B118E128E138E148EE5EBF4E01182B5
:101170001082138212821582148270E060E080E592
:1011800091E00C946305CF93DF9300D000D000D0A2
:10119000CDB7DEB7789484B5826084BD84B58160B4
:1011A00084BD85B5826085BD85B5816085BD809132
:1011B0006E00816080936E001092810080918100AA
:1011C00082608093810080918100816080938100A2
:1011D000809180008160809380008091B100846064
:1011E0008093B1008091B00081608093B0008091C5
:1011F0007A00846080937A0080917A008260809384
:101200007A0080917A00816080937A0080917A00E0
:10121000806880937A001092C100E0912804F091D8
:10122000290482E08083E0912404F0912504108257
:10123000E0912604F09127048FEC80831092300413
:10124000E0912C04F0912D0486E08083E0912A0443
:10125000F0912B04808180618083E0912A04F091D9
:101260002B04808188608083E0912A04F0912B0414
:10127000808180688083E0912A04F0912B04808132
:101280008F7D808360E083E00E94A90210921902A2
:1012900087E390E0C12CD12C7601C3940097C1F074
:1012A000FC0123E0F595E7952A95E1F7E353FE4F1E
:1012B000282F2770B701A60104C0440F551F661FD1
:1012C000771F2A95D2F72081242B20830197E6CF20
:1012D00068E271E08FEE91E00E94120684EF91E0E7
:1012E0009093D5018093D4010CB406FC25C061E035
:1012F0008AE00E94A90261E08AE00E947B0261E02C
:101300008BE00E94A90261E08DE00E94A90260E0EA
:101310008CE00E94A90261E08BE00E947B0260E009
:101320008BE00E947B0260E08DE00E947B0280E502
:101330008CBD8DB581608DBD8AE08093CC0161E06C
:101340000E94A9020E94B8034FEF60E08FEF0E9455
:10135000EC030E94DA026B017C0192E0892E912C51
:10136000A12CB12C0E94DA026C197D098E099F090B
:10137000683E734081059105A8F328EEC20E23E074
:10138000D21EE11CF11C8A9489288A288B2829F016
:10139000812C912C54018394E5CF0E94BF038DE1F1
:1013A0000E94B30380E00E94B3031EB50E94B803FD
:1013B000112399F370E060E088E00E942A0470E055
:1013C00060E08CE00E942A046FEF7BE08AE00E94DC
:1013D0002A0460E07CE084E00E942A046FEF71E15F
:1013E00086E00E942A0466E774E084E10E94CD044E
:1013F00061EB88E30E941D046FE370E388E20E94C2
:101400002A0469EF77EF80E30E942A0461E080EC10
:101410000E941D0442E362EC80E80E94EC0362E15A
:101420007CE086EC0E942A0462E184EC0E941D04A8
:101430006CED75E08AEC0E942A046091EF0184EE65
:101440000E941D046091F00185EE0E941D046091D0
:10145000F10182EE0E941D046091F20183EE0E9470
:101460001D046091F30180EE0E941D046091F4015F
:1014700081EE0E941D0460E071E080E10E94CD04D5
:101480008FE10E94010440EC6BE180E80E94EC03D4
:1014900044E06FE180E80E94EC0382E70E94370499
:1014A000863008F08F5F811104C081E591E00E94D1
:1014B00055051092190264E271E084E194E00E9403
:1014C0003C06109217021092160281E080931802D7
:1014D00060E271E082E192E00E943C06E4E1F4E027
:1014E00020E134E045EF51E09191D9018D919D01CA
:1014F0008095892BDA018D93AD01B4E0E831FB07CB
:1015000099F764E174E086E791E00E94B40562E136
:1015100072E08CE791E00E94B4056DE072E082E831
:1015200091E00E94B40514E0E12EFF24F39403E05F
:10153000702EECE26E2EF0E65F2EA8E73A2EB6E0B3
:101540004B2E88E891E00E9448050E9457020197BF
:1015500009F046C182E991E00E9455056FE070E014
:1015600083EA91E00E9463058091D801882379F095
:101570006091D6017091D7016115710509F03EC1E6
:101580006FEF7BE08CE00E942A041092D80189E37F
:101590000E94370410E000E08823C1F16091D60179
:1015A0007091D70180E00E942A04BE016F5F7F4FD7
:1015B00086E090E00E94C50389819A819093D701CB
:1015C0008093D6018D819E818C010078112787FF41
:1015D00012C08B819C8104970091D4011091D50198
:1015E000015011098017910708F48C016CE172E039
:1015F000C8010E94C503F801E45EFD4F1082F0921D
:10160000D80140E46EE180E80E94EC038091190269
:10161000882369F08091EE01823009F4F8C008F067
:10162000F0C0882309F479C1813009F496C101150D
:10163000110509F023C280911802857029F180916B
:10164000160290911702892BF9F461E184ED0E9452
:101650001D0461E082ED0E941D048AEE0E943704A1
:1016600080FDFBCF60E082ED0E941D0489ED0E94A9
:10167000370482FF09C082E192E00E944406809113
:1016800018028860809318028091160290911702C8
:101690000196909317028093160280911102813077
:1016A00009F069C08091180281FF65C082E08093D3
:1016B000110280912F018F5F80932F01182F1F71CE
:1016C00087E092E00E94010167E072E0882309F45C
:1016D000D2C189EF91E00E94AE0608E00093280293
:1016E0001092290249E050E068E870E08AE292E056
:1016F0000E94DB0E60922D02409233020E94A403EE
:1017000010924002109241028BE080933E021093AF
:101710003F02E2E4F2E0DF011D920A95E9F78091D1
:101720002E01809344028D5F80932E0150924A02D5
:1017300082E080934B0270924C0210924D02109204
:101740004E0210924F02109250021092510280935A
:101750005202E09253028093540286E28093550233
:1017600022E040E250E06AE182E30E9451038AE312
:1017700090E00E944F048DE092E00E9401018823D6
:1017800071F080910C0281110AC080910B028111CD
:1017900006C08DE092E00E944406F0920B0287E0C2
:1017A00092E00E940101882371F08091060281116C
:1017B0000AC080910502811106C087E092E00E9474
:1017C0004406F092050280E090E0892B09F4B9CE3E
:1017D0000E948B01882309F4ACCE0E940000A9CEA0
:1017E0000E945702892B09F0BFCE83EB91E00E9443
:1017F00055056CE070E083EB91E0B4CE6150710967
:10180000C1CE833009F455C0843009F010CF65E0B3
:10181000C8010E94E004882309F4CAC08091DD0158
:10182000811108C088E30E943704682F6E7F88E327
:101830000E941D0466E572E084E194E00E943C068B
:10184000E6E3F3E0C801845E9D4F4C016F0192E036
:10185000C90ED11C21808081863009F4FBC008F0BC
:10186000BEC0813009F4ECC0833009F4EFC0F6014A
:10187000E20DF11DE815F90548F30E94FF0260939F
:10188000E6017093E7018093E8019093E90180916C
:101890001202882359F01092170210921602F09249
:1018A000180262E172E0CB010E943C067092EE01E8
:1018B000BECE8090EA019090EB01A090EC01B09038
:1018C000ED012FEF82169206A206B20609F4AFCE02
:1018D0000E94FF022091E6013091E7014091E8016A
:1018E0005091E901621B730B840B950B6815790508
:1018F0008A059B0508F49BCE84E194E00E94C00613
:10190000E092EE010E94FF026093E2017093E30116
:101910008093E4019093E5018ACE0E94FF026093D8
:10192000DE017093DF018093E0019093E101E4E137
:10193000F4E0DF012E2D1D922A95E9F790E080E07A
:101940000E94C00688E30E943704682F616088E324
:101950000E941D04F092EE01D5CF62E0C8010E9402
:10196000E004882329F166E572E0CE0101960E9429
:101970003C06E6E3F3E0C801845E9D4FBF016E5F65
:101980007F4F21813081363361F489ED91E00E94EF
:101990003C06CE0101960E94C00682E08093EE01D3
:1019A000B1CFFB01E20FF11DE817F90738F3F1CFD2
:1019B0000E94FF022091E2013091E3014091E40195
:1019C0005091E501621B730B840B950B61317742DB
:1019D0008105910508F42BCE1092EE0128CE8A33B2
:1019E00031F08F3F09F449CF833309F040CF109293
:1019F000EA011092EB011092EC011092ED01F60158
:101A0000C601049620E030E0A9016191542F432FD4
:101A1000322F2227260F311D411D511D8E179F0782
:101A2000A1F72F3FAFEF3A074A075A07B9F42093BF
:101A3000EA013093EB014093EC015093ED0117CF95
:101A4000B60180E194E00E943C0611CFB60182E12C
:101A500092E0F9CFB6018DE092E0F5CFA8EEB3E0C9
:101A60000E94E40E6093EA017093EB018093EC0115
:101A70009093ED01FCCE8FEF91E02DCE0932110550
:101A800008F4A1CE80912802883009F09CCE809184
:101A90002902863009F03EC144E050E064E174E080
:101AA00082E492E00E943F11892B09F08CCE809154
:101AB0003102813029F582E292E00E9431061092D3
:101AC000300282E08093310262E372E08CE392E0C4
:101AD0000E9412066FEE71E082E392E00E9412060D
:101AE00068E372E082E492E00E943C0664E174E004
:101AF00088E392E00E943C068AE290E00E944F0454
:101B00008091180283FF0DC010913102123049F408
:101B10006FEF71E082E192E00E941A06811110934A
:101B2000180280910C02811110C080910B02882351
:101B300061F069EF71E08DE092E00E941A0688235F
:101B400021F0F0920C0210920B028091060281119A
:101B50003ACE80910502882309F435CE69EF71E011
:101B600087E092E00E941A06882309F42CCEF092B6
:101B700006021092050227CE0633110508F423CE83
:101B8000863009F020CE809140028B3009F04CC0A5
:101B900044E050E067E072E086E392E00E943F118B
:101BA000892B09F010CE10914B0212FF04C085E082
:101BB0008093110208CE0E940B0320911102223063
:101BC000F9F4212F20711271123179F460E090E064
:101BD00080E00E948A0688E180934B027092110295
:101BE00090E080E00E94AF04EECDF09211020196E9
:101BF000222311F090E080E064E00E948A06E3CDA9
:101C0000253009F4E0CD10FF0AC0233009F4DBCD04
:101C100069E001960E948A0640921102D4CD60E0EC
:101C2000009709F4D0CDE9CF8111CDCD809141024B
:101C3000803509F0C8CDD0904B02D1FE35C010924E
:101C40002C0260922D020E947806B2E1B0934B0202
:101C500060E081E090E00E94260310924202109220
:101C6000430280912E0180934402109245028D5FC1
:101C700080932E0182E080935202E092530285E02D
:101C8000809354021092550250924A0280934C0263
:101C900030924D0222E040E250E06AE182E30E948D
:101CA00051038AE390E07BC0D4FE8DCD0E940B03EC
:101CB00090931B0280931A02892B31F180914A0282
:101CC00090E024E0959587952A95E1F7880F991F74
:101CD000880F991F82960817190708F474CD42EDF2
:101CE00050E061E970E082E592E00E94DB0E60E086
:101CF00080911A0290911B020E948A0629E120938A
:101D00004B0281ED90E06ECFD0FE5DCD60E090E0C3
:101D100080E073CF0932110509F455CD811153CDFF
:101D200080912A02853409F04ECD44E050E064E110
:101D300074E08AE392E00E943F11892BA9F044E00D
:101D400050E065EF71E08AE392E00E943F11892B39
:101D500059F044E050E066E371E08AE392E00E94CB
:101D60003F11892B09F02FCD80913302813009F08A
:101D700003CF80913E02883009F025CD0E9478067D
:101D800010923E0280914002883F28F090914102DB
:101D90009F5F90934102885F80934002C8010E9438
:101DA0004F0411CD8091B5049091B604009711F0C5
:101DB0000C94F90F0895FB01DC0102C005900D920F
:101DC00041505040D8F708950E94260FA59F900DCE
:101DD000B49F900DA49F800D911D112408952F9202
:101DE0003F924F925F926F927F928F929F92AF92AB
:101DF000BF92CF92DF92EF92FF920F931F93CF93F8
:101E0000DF93CDB7DEB7CA1BDB0B0FB6F894DEBF8E
:101E10000FBECDBF09942A88398848885F846E84B4
:101E20007D848C849B84AA84B984C884DF80EE80FE
:101E3000FD800C811B81AA81B981CE0FD11D0FB607
:101E4000F894DEBF0FBECDBFED010895A29FB00193
:101E5000B39FC001A39F700D811D1124911DB29FDE
:101E6000700D811D1124911D0895A1E21A2EAA1B47
:101E7000BB1BFD010DC0AA1FBB1FEE1FFF1FA2173A
:101E8000B307E407F50720F0A21BB30BE40BF50B37
:101E9000661F771F881F991F1A9469F760957095C0
:101EA000809590959B01AC01BD01CF010895EE0F87
:101EB000FF1F0590F491E02D09940F931F93CF938A
:101EC000DF938230910510F482E090E0E091BD0450
:101ED000F091BE0430E020E0B0E0A0E0309799F44B
:101EE0002115310509F44AC0281B390B243031056E
:101EF000D8F58A819B816115710589F1FB01938376
:101F00008283FE0111C040815181028113814817F3
:101F10005907E0F04817590799F4109761F01296A5
:101F20000C93129713961C933296CF01DF91CF91A9
:101F30001F910F9108950093BD041093BE04F4CF38
:101F40002115310551F04217530738F0A901DB0183
:101F50009A01BD01DF01F801C1CFEF01F9CF9093E4
:101F6000BE048093BD04CDCFFE01E20FF31F819329
:101F700091932250310939832883D7CF2091BB0414
:101F80003091BC04232B41F4209132013091330174
:101F90003093BC042093BB04209130013091310177
:101FA0002115310541F42DB73EB7409134015091D0
:101FB0003501241B350BE091BB04F091BC04E21702
:101FC000F307A0F42E1B3F0B2817390778F0AC015C
:101FD0004E5F5F4F2417350748F04E0F5F1F509339
:101FE000BC044093BB04819391939FCFF0E0E0E069
:101FF0009CCFCF93DF930097E9F0FC0132971382D7
:102000001282A091BD04B091BE04ED0130E020E049
:102010001097A1F420813181820F931F2091BB047E
:102020003091BC042817390709F061C0F093BC0453
:10203000E093BB04DF91CF910895EA01CE17DF074B
:10204000E8F54A815B819E0141155105B1F7E9012F
:10205000FB83EA8349915991C40FD51FEC17FD0703
:1020600061F4808191810296840F951FE901998323
:102070008883828193819B838A83F0E0E0E01296DB
:102080008D919C9113970097B9F52D913C911197E3
:10209000CD010296820F931F2091BB043091BC04A6
:1020A0002817390739F6309751F51092BE0410926F
:1020B000BD04B093BC04A093BB04BCCFD383C28344
:1020C00040815181840F951FC817D90761F44E5F75
:1020D0005F4F88819981480F591F518340838A81BE
:1020E0009B81938382832115310509F0B0CFF09352
:1020F000BE04E093BD049ECFFD01DC01C0CF13827E
:102100001282D7CFB0E0A0E0E8E8F0E10C94F10E45
:102110008C01009751F4CB010E945D0F8C01C80126
:10212000CDB7DEB7E0E10C940D0FFC01E60FF71F11
:102130009C0122503109E217F30708F49DC0D90130
:10214000CD91DC911197C617D70798F0C530D1050E
:1021500030F3CE0104978617970708F3C61BD70BF9
:102160002297C193D1936D937C93CF010E94F90F75
:10217000D6CF5B01AC1ABD0A4C018C0E9D1EA091FE
:10218000BD04B091BE04512C412CF12CE12C1097D0
:1021900031F58091BB049091BC048815990509F034
:1021A0005CC04616570608F058C0809130019091E7
:1021B0003101009741F48DB79EB7409134015091A1
:1021C0003501841B950BE817F90708F055C0F0930B
:1021D000BC04E093BB04F90171836083A0CF8D91AF
:1021E0009C91119712966C90129713967C9013976E
:1021F000A815B90559F56C0142E0C40ED11CCA14EA
:10220000DB0420F1AC014A195B09DA01129615973B
:1022100080F06282738251834083D9016D937C93F5
:10222000E114F10471F0D7011396FC93EE93129729
:1022300076CF22968C0F9D1FF90191838083F30145
:10224000EFCFF093BE04E093BD0469CF4816590662
:1022500008F42C017D01D3019ACFCB010E945D0FC0
:102260007C01009749F0AE01B8010E944C11C801F1
:102270000E94F90F870153CF10E000E050CFFB011F
:10228000DC0104C08D910190801921F4415050402F
:10229000C8F7881B990B0895FB01DC0102C001906F
:1022A0000D9241505040D8F70895FB01DC01019098
:1022B0000D920020E1F7089510E0C6EDD0E004C0D3
:1022C000FE010E94570F2196C73DD107C9F7F89428
:1022D000FFCF41726475696E6F2D454E4332386A87
:1022E00036302D30300000000000000000000000FB
:1022F0000000C0A80015C0A800197469692D30310C
:102300000A010000BF048000FFFFFFFFFFFF000085
:102310000000C10121014E010E027F015D0171012A
:102320000D0A004661696C656420746F2061636307
:102330006573732045746865726E657420636F6E93
:1023400074726F6C6C65720049503A2020004757D8
:102350003A202000444E533A20004D6F74696F6E4E
:10236000203A20004D6F74696F6E20646574656358
:102370007465642E004D6F74696F6E2044657465DA
:1023800063746564004D6F74696F6E20456E64659B
:022390006400E7
:107E0000112484B714BE81FFF0D085E080938100F7
:107E100082E08093C00088E18093C10086E0809377
:107E2000C20080E18093C4008EE0C9D0259A86E02C
:107E300020E33CEF91E0309385002093840096BBD3
:107E4000B09BFECF1D9AA8958150A9F7CC24DD24C4
:107E500088248394B5E0AB2EA1E19A2EF3E0BF2EE7
:107E6000A2D0813461F49FD0082FAFD0023811F036
:107E7000013811F484E001C083E08DD089C08234E0
:107E800011F484E103C0853419F485E0A6D080C0E4
:107E9000853579F488D0E82EFF2485D0082F10E0AE
:107EA000102F00270E291F29000F111F8ED06801E7
:107EB0006FC0863521F484E090D080E0DECF843638
:107EC00009F040C070D06FD0082F6DD080E0C81688
:107ED00080E7D80618F4F601B7BEE895C0E0D1E017
:107EE00062D089930C17E1F7F0E0CF16F0E7DF06D8
:107EF00018F0F601B7BEE89568D007B600FCFDCFD4
:107F0000A601A0E0B1E02C9130E011968C91119780
:107F100090E0982F8827822B932B1296FA010C0160
:107F200087BEE89511244E5F5F4FF1E0A038BF0790
:107F300051F7F601A7BEE89507B600FCFDCF97BE46
:107F4000E89526C08437B1F42ED02DD0F82E2BD052
:107F50003CD0F601EF2C8F010F5F1F4F84911BD097
:107F6000EA94F801C1F70894C11CD11CFA94CF0C13
:107F7000D11C0EC0853739F428D08EE10CD085E9AC
:107F80000AD08FE07ACF813511F488E018D01DD067
:107F900080E101D065CF982F8091C00085FFFCCF94
:107FA0009093C60008958091C00087FFFCCF809118
:107FB000C00084FD01C0A8958091C6000895E0E648
:107FC000F0E098E1908380830895EDDF803219F02E
:107FD00088E0F5DFFFCF84E1DECF1F93182FE3DFCA
:107FE0001150E9F7F2DF1F91089580E0E8DFEE27F6
:047FF000FF270994CA
:027FFE00040479
:00000001FF
